{
  "contractName": "Donation",
  "abi": [
    {
      "inputs": [],
      "stateMutability": "nonpayable",
      "type": "constructor"
    },
    {
      "inputs": [
        {
          "internalType": "uint256",
          "name": "",
          "type": "uint256"
        }
      ],
      "name": "_fooditemIds",
      "outputs": [
        {
          "internalType": "uint256",
          "name": "",
          "type": "uint256"
        }
      ],
      "stateMutability": "view",
      "type": "function",
      "constant": true
    },
    {
      "inputs": [
        {
          "internalType": "uint256",
          "name": "",
          "type": "uint256"
        }
      ],
      "name": "_fooditems",
      "outputs": [
        {
          "internalType": "uint256",
          "name": "id",
          "type": "uint256"
        },
        {
          "internalType": "string",
          "name": "ready",
          "type": "string"
        },
        {
          "internalType": "string",
          "name": "Location",
          "type": "string"
        },
        {
          "internalType": "string",
          "name": "itemtype",
          "type": "string"
        },
        {
          "internalType": "uint256",
          "name": "quantity",
          "type": "uint256"
        },
        {
          "internalType": "bool",
          "name": "refigeration",
          "type": "bool"
        },
        {
          "internalType": "string",
          "name": "shelflife",
          "type": "string"
        },
        {
          "internalType": "bool",
          "name": "pickup",
          "type": "bool"
        },
        {
          "internalType": "bool",
          "name": "partialgiveout",
          "type": "bool"
        },
        {
          "internalType": "string",
          "name": "optHours",
          "type": "string"
        }
      ],
      "stateMutability": "view",
      "type": "function",
      "constant": true
    },
    {
      "inputs": [],
      "name": "taskCount",
      "outputs": [
        {
          "internalType": "uint256",
          "name": "",
          "type": "uint256"
        }
      ],
      "stateMutability": "view",
      "type": "function",
      "constant": true
    },
    {
      "inputs": [
        {
          "internalType": "uint256",
          "name": "_id",
          "type": "uint256"
        },
        {
          "internalType": "string",
          "name": "_itemtype",
          "type": "string"
        },
        {
          "internalType": "string",
          "name": "_ready",
          "type": "string"
        },
        {
          "internalType": "string",
          "name": "_shelflife",
          "type": "string"
        },
        {
          "internalType": "bool",
          "name": "_pickup",
          "type": "bool"
        },
        {
          "internalType": "bool",
          "name": "_partialgiveout",
          "type": "bool"
        },
        {
          "internalType": "bool",
          "name": "_refigeration",
          "type": "bool"
        },
        {
          "internalType": "uint256",
          "name": "_quantity",
          "type": "uint256"
        },
        {
          "internalType": "string",
          "name": "_optHours",
          "type": "string"
        },
        {
          "internalType": "string",
          "name": "_Location",
          "type": "string"
        }
      ],
      "name": "donate",
      "outputs": [
        {
          "internalType": "bool",
          "name": "",
          "type": "bool"
        }
      ],
      "stateMutability": "nonpayable",
      "type": "function"
    }
  ],
  "bytecode": "0x60806040526000805534801561001457600080fd5b506000600481905550610ee48061002c6000396000f3fe608060405234801561001057600080fd5b506004361061004c5760003560e01c80639c23e4a814610051578063b1d7581714610081578063b6cb58a5146100ba578063e985008e146100d8575b600080fd5b61006b60048036038101906100669190610814565b610108565b604051610078919061098e565b60405180910390f35b61009b600480360381019061009691906109a9565b6102ff565b6040516100b19a99989796959493929190610a64565b60405180910390f35b6100c2610622565b6040516100cf9190610b23565b60405180910390f35b6100f260048036038101906100ed91906109a9565b610628565b6040516100ff9190610b23565b60405180910390f35b600080339050600073ffffffffffffffffffffffffffffffffffffffff168173ffffffffffffffffffffffffffffffffffffffff160361017d576040517f08c379a000000000000000000000000000000000000000000000000000000000815260040161017490610bb0565b60405180910390fd5b6040518061014001604052808d81526020018b81526020018481526020018c815260200186815260200187151581526020018a81526020018915158152602001881515815260200185815250600260008e81526020019081526020016000206000820151816000015560208201518160010190816101fb9190610ddc565b5060408201518160020190816102119190610ddc565b5060608201518160030190816102279190610ddc565b506080820151816004015560a08201518160050160006101000a81548160ff02191690831515021790555060c08201518160060190816102679190610ddc565b5060e08201518160070160006101000a81548160ff0219169083151502179055506101008201518160070160016101000a81548160ff0219169083151502179055506101208201518160080190816102bf9190610ddc565b5090505060018c908060018154018082558091505060019003906000526020600020016000909190919091505560019150509a9950505050505050505050565b600260205280600052604060002060009150905080600001549080600101805461032890610bff565b80601f016020809104026020016040519081016040528092919081815260200182805461035490610bff565b80156103a15780601f10610376576101008083540402835291602001916103a1565b820191906000526020600020905b81548152906001019060200180831161038457829003601f168201915b5050505050908060020180546103b690610bff565b80601f01602080910402602001604051908101604052809291908181526020018280546103e290610bff565b801561042f5780601f106104045761010080835404028352916020019161042f565b820191906000526020600020905b81548152906001019060200180831161041257829003601f168201915b50505050509080600301805461044490610bff565b80601f016020809104026020016040519081016040528092919081815260200182805461047090610bff565b80156104bd5780601f10610492576101008083540402835291602001916104bd565b820191906000526020600020905b8154815290600101906020018083116104a057829003601f168201915b5050505050908060040154908060050160009054906101000a900460ff16908060060180546104eb90610bff565b80601f016020809104026020016040519081016040528092919081815260200182805461051790610bff565b80156105645780601f1061053957610100808354040283529160200191610564565b820191906000526020600020905b81548152906001019060200180831161054757829003601f168201915b5050505050908060070160009054906101000a900460ff16908060070160019054906101000a900460ff169080600801805461059f90610bff565b80601f01602080910402602001604051908101604052809291908181526020018280546105cb90610bff565b80156106185780601f106105ed57610100808354040283529160200191610618565b820191906000526020600020905b8154815290600101906020018083116105fb57829003601f168201915b505050505090508a565b60005481565b6001818154811061063857600080fd5b906000526020600020016000915090505481565b6000604051905090565b600080fd5b600080fd5b6000819050919050565b61067381610660565b811461067e57600080fd5b50565b6000813590506106908161066a565b92915050565b600080fd5b600080fd5b6000601f19601f8301169050919050565b7f4e487b7100000000000000000000000000000000000000000000000000000000600052604160045260246000fd5b6106e9826106a0565b810181811067ffffffffffffffff82111715610708576107076106b1565b5b80604052505050565b600061071b61064c565b905061072782826106e0565b919050565b600067ffffffffffffffff821115610747576107466106b1565b5b610750826106a0565b9050602081019050919050565b82818337600083830152505050565b600061077f61077a8461072c565b610711565b90508281526020810184848401111561079b5761079a61069b565b5b6107a684828561075d565b509392505050565b600082601f8301126107c3576107c2610696565b5b81356107d384826020860161076c565b91505092915050565b60008115159050919050565b6107f1816107dc565b81146107fc57600080fd5b50565b60008135905061080e816107e8565b92915050565b6000806000806000806000806000806101408b8d03121561083857610837610656565b5b60006108468d828e01610681565b9a505060208b013567ffffffffffffffff8111156108675761086661065b565b5b6108738d828e016107ae565b99505060408b013567ffffffffffffffff8111156108945761089361065b565b5b6108a08d828e016107ae565b98505060608b013567ffffffffffffffff8111156108c1576108c061065b565b5b6108cd8d828e016107ae565b97505060806108de8d828e016107ff565b96505060a06108ef8d828e016107ff565b95505060c06109008d828e016107ff565b94505060e06109118d828e01610681565b9350506101008b013567ffffffffffffffff8111156109335761093261065b565b5b61093f8d828e016107ae565b9250506101208b013567ffffffffffffffff8111156109615761096061065b565b5b61096d8d828e016107ae565b9150509295989b9194979a5092959850565b610988816107dc565b82525050565b60006020820190506109a3600083018461097f565b92915050565b6000602082840312156109bf576109be610656565b5b60006109cd84828501610681565b91505092915050565b6109df81610660565b82525050565b600081519050919050565b600082825260208201905092915050565b60005b83811015610a1f578082015181840152602081019050610a04565b60008484015250505050565b6000610a36826109e5565b610a4081856109f0565b9350610a50818560208601610a01565b610a59816106a0565b840191505092915050565b600061014082019050610a7a600083018d6109d6565b8181036020830152610a8c818c610a2b565b90508181036040830152610aa0818b610a2b565b90508181036060830152610ab4818a610a2b565b9050610ac360808301896109d6565b610ad060a083018861097f565b81810360c0830152610ae28187610a2b565b9050610af160e083018661097f565b610aff61010083018561097f565b818103610120830152610b128184610a2b565b90509b9a5050505050505050505050565b6000602082019050610b3860008301846109d6565b92915050565b7f50726f647563743a3a6164643a204d616e7566616374757265722063616e6e6f60008201527f74206265206e756c6c0000000000000000000000000000000000000000000000602082015250565b6000610b9a6029836109f0565b9150610ba582610b3e565b604082019050919050565b60006020820190508181036000830152610bc981610b8d565b9050919050565b7f4e487b7100000000000000000000000000000000000000000000000000000000600052602260045260246000fd5b60006002820490506001821680610c1757607f821691505b602082108103610c2a57610c29610bd0565b5b50919050565b60008190508160005260206000209050919050565b60006020601f8301049050919050565b600082821b905092915050565b600060088302610c927fffffffffffffffffffffffffffffffffffffffffffffffffffffffffffffffff82610c55565b610c9c8683610c55565b95508019841693508086168417925050509392505050565b6000819050919050565b6000610cd9610cd4610ccf84610660565b610cb4565b610660565b9050919050565b6000819050919050565b610cf383610cbe565b610d07610cff82610ce0565b848454610c62565b825550505050565b600090565b610d1c610d0f565b610d27818484610cea565b505050565b5b81811015610d4b57610d40600082610d14565b600181019050610d2d565b5050565b601f821115610d9057610d6181610c30565b610d6a84610c45565b81016020851015610d79578190505b610d8d610d8585610c45565b830182610d2c565b50505b505050565b600082821c905092915050565b6000610db360001984600802610d95565b1980831691505092915050565b6000610dcc8383610da2565b9150826002028217905092915050565b610de5826109e5565b67ffffffffffffffff811115610dfe57610dfd6106b1565b5b610e088254610bff565b610e13828285610d4f565b600060209050601f831160018114610e465760008415610e34578287015190505b610e3e8582610dc0565b865550610ea6565b601f198416610e5486610c30565b60005b82811015610e7c57848901518255600182019150602085019450602081019050610e57565b86831015610e995784890151610e95601f891682610da2565b8355505b6001600288020188555050505b50505050505056fea2646970667358221220d642d743170a2c2770f5b816ed7c20bd148f6a96f973368c26945d6d946ae21b64736f6c63430008130033",
  "immutableReferences": {},
  "source": "// SPDX-License-Identifier: MIT\n//pragma solidity >=0.4.22 <0.9.0;\npragma solidity ^0.8.19;\n\ncontract Donation{\n    uint public taskCount = 0;\n\n\n\n    struct FoodItem{\n        uint256 id;\n        string ready;\n        string Location;\n        string itemtype;\n        uint quantity;\n        bool refigeration;\n        string shelflife;\n        bool pickup;\n        bool partialgiveout;\n        string optHours;\n        //address manufacturer;\n        //address currentOwner;\n        //address lastOwner;\n        //uint256 rating;\n        //uint launchDate;\n        //string image_url;\n    }\n\n    struct Transaction{\n        uint256 txId;\n        address from;\n        address to;\n        uint date;\n    }\n\n    uint256[] public _fooditemIds;\n    mapping(uint256 => FoodItem) public _fooditems;\n    mapping(uint256 => Transaction) _transactions;\n\n\n    uint256 _nextTransactionId;\n    \n    constructor(){\n        _nextTransactionId = 0;\n    }\n\n    function donate(uint256 _id, string memory _itemtype, string memory _ready, string memory _shelflife, bool _pickup, bool _partialgiveout, bool _refigeration, uint _quantity,string memory _optHours, string memory _Location) public returns (bool){\n        address _manufacturer = msg.sender;\n        require (_manufacturer != address(0), \"Product::add: Manufacturer cannot be null\");\n        _fooditems[_id] = FoodItem({\n            id: _id,\n            ready: _ready,\n            Location:_Location,\n            itemtype:_itemtype,\n            quantity:_quantity,\n            refigeration:_refigeration,\n            shelflife:_shelflife,\n            pickup:_pickup,\n            partialgiveout:_partialgiveout,\n            optHours:_optHours\n        });\n\n        // for(uint i = 0; i < _rawProducts.length; i++){\n        //    _itemRawProducts[_id].push(_rawProducts[i]);\n        //}\n\n        _fooditemIds.push(_id);\n        return true;\n\n    }\n    \n}",
  "sourcePath": "/home/cougarnet.uh.edu/fmnartey/Donation_module/contracts/Donation.sol",
  "compiler": {
    "name": "solc",
    "version": "0.8.19+commit.7dd6d404.Emscripten.clang"
  },
  "schemaVersion": "3.4.13",
  "updatedAt": "2023-05-17T19:57:14.209Z",
  "networkType": "ethereum",
  "devdoc": {
    "kind": "dev",
    "methods": {},
    "version": 1
  },
  "userdoc": {
    "kind": "user",
    "methods": {},
    "version": 1
  }
}